{
  "contractName": "Game",
  "abi": [
    {
      "inputs": [],
      "stateMutability": "nonpayable",
      "type": "constructor"
    },
    {
      "anonymous": false,
      "inputs": [
        {
          "indexed": false,
          "internalType": "uint256",
          "name": "randomResult",
          "type": "uint256"
        },
        {
          "indexed": false,
          "internalType": "uint256",
          "name": "time",
          "type": "uint256"
        }
      ],
      "name": "Result",
      "type": "event"
    },
    {
      "inputs": [
        {
          "internalType": "bytes32",
          "name": "requestId",
          "type": "bytes32"
        },
        {
          "internalType": "uint256",
          "name": "randomness",
          "type": "uint256"
        }
      ],
      "name": "rawFulfillRandomness",
      "outputs": [],
      "stateMutability": "nonpayable",
      "type": "function"
    },
    {
      "inputs": [
        {
          "internalType": "uint256",
          "name": "userProvidedSeed",
          "type": "uint256"
        }
      ],
      "name": "getRandomNumber",
      "outputs": [
        {
          "internalType": "bytes32",
          "name": "requestId",
          "type": "bytes32"
        }
      ],
      "stateMutability": "nonpayable",
      "type": "function"
    }
  ],
  "bytecode": "0x60c060405234801561001057600080fd5b5073b3dccb4cf7a26f6cf6b120cf5a73875b7bbc655b7301be23585060835e02b77ef475b0cc51aa1e07098173ffffffffffffffffffffffffffffffffffffffff1660a08173ffffffffffffffffffffffffffffffffffffffff1660601b815250508073ffffffffffffffffffffffffffffffffffffffff1660808173ffffffffffffffffffffffffffffffffffffffff1660601b81525050505067016345785d8a000060018190555060805160601c60a05160601c6106d86100ec6000398060b7528061037152508061018b528061033552506106d86000f3fe608060405234801561001057600080fd5b50600436106100365760003560e01c806394985ddd1461003b578063b37217a414610073575b600080fd5b6100716004803603604081101561005157600080fd5b8101908080359060200190929190803590602001909291905050506100b5565b005b61009f6004803603602081101561008957600080fd5b8101908080359060200190929190505050610184565b6040518082815260200191505060405180910390f35b7f000000000000000000000000000000000000000000000000000000000000000073ffffffffffffffffffffffffffffffffffffffff163373ffffffffffffffffffffffffffffffffffffffff1614610176576040517f08c379a000000000000000000000000000000000000000000000000000000000815260040180806020018281038252601f8152602001807f4f6e6c7920565246436f6f7264696e61746f722063616e2066756c66696c6c0081525060200191505060405180910390fd5b61018082826102ee565b5050565b60006001547f000000000000000000000000000000000000000000000000000000000000000073ffffffffffffffffffffffffffffffffffffffff166370a08231306040518263ffffffff1660e01b8152600401808273ffffffffffffffffffffffffffffffffffffffff1673ffffffffffffffffffffffffffffffffffffffff16815260200191505060206040518083038186803b15801561022657600080fd5b505afa15801561023a573d6000803e3d6000fd5b505050506040513d602081101561025057600080fd5b8101908080519060200190929190505050116102b7576040517f08c379a000000000000000000000000000000000000000000000000000000000815260040180806020018281038252602b815260200180610678602b913960400191505060405180910390fd5b6102e77f2ed0feb3e7fd2022120aa84fab1945545a9f2ffc9076fd6156fa96eaff4c131160001b60015484610331565b9050919050565b7f34fa627446f032cedc60a5521c4a8fbdd28f3ce106d8c6f6c17322ada873cebb8142604051808381526020018281526020019250505060405180910390a15050565b60007f000000000000000000000000000000000000000000000000000000000000000073ffffffffffffffffffffffffffffffffffffffff16634000aea07f000000000000000000000000000000000000000000000000000000000000000085878660405160200180838152602001828152602001925050506040516020818303038152906040526040518463ffffffff1660e01b8152600401808473ffffffffffffffffffffffffffffffffffffffff1673ffffffffffffffffffffffffffffffffffffffff16815260200183815260200180602001828103825283818151815260200191508051906020019080838360005b83811015610440578082015181840152602081019050610425565b50505050905090810190601f16801561046d5780820380516001836020036101000a031916815260200191505b50945050505050602060405180830381600087803b15801561048e57600080fd5b505af11580156104a2573d6000803e3d6000fd5b505050506040513d60208110156104b857600080fd5b81019080805190602001909291905050505060006104ea8584306000808a81526020019081526020016000205461053c565b90506105126001600080888152602001908152602001600020546105b690919063ffffffff16565b60008087815260200190815260200160002081905550610532858261063e565b9150509392505050565b600084848484604051602001808581526020018481526020018373ffffffffffffffffffffffffffffffffffffffff1673ffffffffffffffffffffffffffffffffffffffff1681526020018281526020019450505050506040516020818303038152906040528051906020012060001c9050949350505050565b600080828401905083811015610634576040517f08c379a000000000000000000000000000000000000000000000000000000000815260040180806020018281038252601b8152602001807f536166654d6174683a206164646974696f6e206f766572666c6f77000000000081525060200191505060405180910390fd5b8091505092915050565b6000828260405160200180838152602001828152602001925050506040516020818303038152906040528051906020012090509291505056fe4e6f7420656e6f756768204c494e4b202d2066696c6c20636f6e7472616374207769746820666175636574a2646970667358221220b0444e4a63b4729f7f7bd578a0d5fc2944b46f09afc07b871f2771a87eee433d64736f6c63430006060033",
  "immutableReferences": {
    "193": [
      {
        "length": 32,
        "start": 395
      },
      {
        "length": 32,
        "start": 821
      }
    ],
    "195": [
      {
        "length": 32,
        "start": 183
      },
      {
        "length": 32,
        "start": 881
      }
    ]
  },
  "source": "pragma solidity 0.6.6;\n\npragma solidity 0.6.6;\n\nimport \"@chainlink/contracts/src/v0.6/VRFConsumerBase.sol\";\n\ncontract Game is VRFConsumerBase {\n    uint256 internal fee;\n\n    //Network: Rinkeby\n    address constant VFRC_address = 0xb3dCcb4Cf7a26f6cf6B120Cf5A73875B7BBc655B; // VRF Coordinator\n    address constant LINK_address = 0x01BE23585060835E02B77ef475b0Cc51aA1e0709; // LINK token\n\n    bytes32 internal constant keyHash =\n        0x2ed0feb3e7fd2022120aa84fab1945545a9f2ffc9076fd6156fa96eaff4c1311;\n\n    event Result(uint256 randomResult, uint256 time);\n\n    /**\n     * Constructor inherits VRFConsumerBase\n     */\n    constructor() public VRFConsumerBase(VFRC_address, LINK_address) {\n        fee = 0.1 * 10**18; // 0.1 LINK\n    }\n\n    /**\n     * Requests randomness from a user-provided seed\n     */\n    function getRandomNumber(uint256 userProvidedSeed)\n        public\n        returns (bytes32 requestId)\n    {\n        require(\n            LINK.balanceOf(address(this)) > fee,\n            \"Not enough LINK - fill contract with faucet\"\n        );\n        return requestRandomness(keyHash, fee, userProvidedSeed);\n    }\n\n    /**\n     * Callback function used by VRF Coordinator\n     */\n    function fulfillRandomness(bytes32 requestId, uint256 randomness)\n        internal\n        override\n    {\n        emit Result(randomness, block.timestamp);\n    }\n}\n",
  "sourcePath": "/home/rusznak/game_of_life/game/contracts/Game.sol",
  "compiler": {
    "name": "solc",
    "version": "0.6.6+commit.6c089d02.Emscripten.clang"
  },
  "schemaVersion": "3.3.3",
  "updatedAt": "2021-03-10T15:32:49.816Z",
  "networkType": "ethereum",
  "devdoc": {
    "methods": {}
  },
  "userdoc": {
    "methods": {
      "constructor": "Constructor inherits VRFConsumerBase",
      "getRandomNumber(uint256)": {
        "notice": "Requests randomness from a user-provided seed"
      }
    }
  }
}